S011000050524F594543544F322E737265636C
S11300000C943A000C9457000C9457000C9457002D
S11300100C9457000C9457000C9457000C94570000
S11300200C9457000C9457000C9457000C947104D2
S11300300C9457000C9457000C9457000C945700E0
S11300400C9457000C9457000C9457000C945700D0
S11300500C9457000C9457000C9457000C945700C0
S11300600C9457000C9457006364696E6F70737539
S113007078585B0011241FBECFEFD8E0DEBFCDBFA0
S113008014E0A0E0B1E0EAE7F7E102C005900D92C8
S1130090A63EB107D9F725E0A6EEB4E001C01D9253
S11300A0A930B207E1F70E94EB030C94BB0B0C944C
S11300B0000080E480937C0087E880937A000895B0
S11300C08F70ECE7F0E09081907F892B8083EAE7E2
S11300D0F0E080818064808380917A0086FDFCCF8B
S11300E0809178009091790008959C01A4EBB0E090
S11300F00E9445052FEF33E040E050E00E942305C5
S1130100822F0895EF92FF920F931F93CF93843021
S1130110C0F47B01082F10E0000F111F000F111F06
S11301200F5F1F4FC0E00BC08C2F90E0F701E80F6A
S1130130F91F6081800F911F0E94720BCF5FC43042
S113014098F3CF911F910F91FF90EF900895CF9264
S1130150DF92EF92FF920F931F93CF938430E8F4D2
S11301607B01082F10E0000F111F000F111F0F5FFC
S11301701F4FC0E010C08C2F90E06701C80ED91E3D
S1130180800F911F0E946A0BF6018083853B10F05B
S11301908AE58083CF5FC43070F3CF911F910F91B4
S11301A0FF90EF90DF90CF900895853008F084E0C1
S11301B0682F80E090E00E94720B089580E090E048
S11301C00E946A0B853008F080E0089580E00E9468
S11301D0D500089585B18F7D85B985B18F7E85B9A8
S11301E08BB18F778BB9089584B1806284B984B15F
S11301F0806184B98AB180688AB90E94EA0008954E
S113020085B1806285B985B18F7E85B98BB18F77D1
S11302108BB9089585B18F7D85B985B1806185B924
S11302208BB18F778BB9089585B18F7D85B985B1F1
S11302308F7E85B98BB180688BB90895CF93DF9396
S1130240C0E0D1E0688180E00E945804698181E0C7
S11302500E9458046A8182E00E9458046B8183E002
S11302600E945804DF91CF910895CF93DF9380E0EB
S11302700E9460000E947500C0E0D1E0888381E0A4
S11302800E9460000E947500898382E00E946000E1
S11302900E9475008A8383E00E9460000E947500BA
S11302A08B830E941E012FEF89EF90E02150804044
S11302B09040E1F700C00000DF91CF9108950F93C3
S11302C01F93CF93DF93CDB7DEB7C855D1090FB6CF
S11302D0F894DEBF0FBECDBF9E01295F3F4F3F9311
S11302E02F93225031093F932F93225031093F938A
S11302F02F93225031093F932F932CE031E03F9309
S11303002F939F938F930E94A5050FB6F894DEBF99
S11303100FBECDBF049709F06CC089819A819923DF
S113032014F41A82198289819A81853B910524F0FB
S113033084EB90E09A8389838B819C81992314F4C4
S11303401C821B828B819C81853B910524F084EB6C
S113035090E09C838B838D819E81992314F41E826B
S11303601D828D819E81853B910524F084EB90E074
S11303709E838D838F819885992314F418861F8218
S11303808F819885853B910524F084EB90E09887D4
S11303908F838981E0E0F1E080838B8181838D818B
S11303A082838F8183830E941E0188858F938F812E
S11303B08F938E818F938D818F938C818F938B817B
S11303C08F938A818F9389818F938AE191E09F93A0
S11303D08F938E01075F1F4F1F930F930E94830516
S11303E0C8010E940F050FB6F894DEBF0FBECDBF43
S11303F004C08BE391E00E940F05C85ADF4F0FB68B
S1130400F894DEBF0FBECDBFDF91CF911F910F9146
S113041008950F931F93CF93DF93CDB7DEB7E29781
S11304200FB6F894DEBF0FBECDBF0E94DE00182FBA
S11304308EE591E00E940F0585E891E00E940F058A
S11304408AEA91E00E940F0582ED91E00E940F0577
S11304508BEF91E00E940F0586E192E00E940F0568
S113046080E492E00E940F0582E692E00E940F056C
S11304701F921F9388E792E09F938F938E010F5FE3
S11304801F4F1F930F930E948305C8010E940F05FD
S113049085E992E00E940F050F900F900F900F9046
S11304A00F900F90E2960FB6F894DEBF0FBECDBF4B
S11304B0DF91CF911F910F9108950F931F93CF93C5
S11304C0DF93CDB7DEB7EC970FB6F894DEBF0FBE5F
S11304D0CDBF0E94DE00182F843038F08BEB92E001
S11304E00E940F050E94090223C060E071E00E948F
S11304F0820081E0810F0E94D500812F90E0019657
S11305009F938F9381EE92E09F938F938E010F5F61
S11305101F4F1F930F930E948305C8010E940F056C
S11305200E9409020F900F900F900F900F900F9060
S1130530EC960FB6F894DEBF0FBECDBFDF91CF911E
S11305401F910F910895EF92FF920F931F93CF93F2
S1130550DF93CDB7DEB7C455D1090FB6F894DEBF2B
S11305600FBECDBF182F0E94DE00811107C082E0AC
S113057093E00E940F050E94090259C0112311F053
S11305808117C8F41F928F9381E293E09F938F9316
S11305908E010B5F1F4F1F930F930E948305C801A9
S11305A00E940F050E9409020F900F900F900F9068
S11305B00F900F903CC0BE016F5F7F4F8FEF810F94
S11305C00E94A70089810F2EF0E0EF2EF1E0FF2EAC
S11305D0F02DF70180838A8181838B8182838C81D2
S11305E083830E941E01F7013381228191818081DE
S11305F01F923F931F922F931F929F931F928F934B
S11306001F921F9383E593E09F938F938E010B5F5B
S11306101F4F1F930F930E948305C8010E940F056B
S11306200E9409020FB6F894DEBF0FBECDBFCC5AAC
S1130630DF4F0FB6F894DEBF0FBECDBFDF91CF9171
S11306401F910F91FF90EF900895CF93DF93EC01EA
S11306508091E604882341F0CE010E945405109253
S1130660E6040E94A3028DC068E773E0CE010E94F5
S11306707205892B59F41092E8040E9400018AE75C
S113068093E00E940F050E9409027BC062E973E0B7
S1130690CE010E947205892B71F48091E8048111C6
S11306A003C00E945D026DC084E993E00E940F05BF
S11306B00E94090266C06CEB73E0CE010E947205D1
S11306C0892B81F4C1E0C093E8040E940A01C0931D
S11306D0E6048EEB93E00E940F0586ED93E00E9402
S11306E00F054FC06AEC74E0CE010E947205892B9D
S11306F0B1F482E08093E8040E94140180E094E065
S11307000E940F0581E294E00E940F058BE594E0BE
S11307100E940F0587E794E00E940F0532C088818C
S11307208D3479F48091E804823021F4CE010E9462
S11307305F0127C081E994E00E940F050E9409022D
S113074020C063EB74E0CE010E947205892B49F44A
S11307500E94E60085EB94E00E940F050E940902C6
S113076010C067EC74E0CE010E947205892B19F465
S11307700E94090206C08CEC94E00E940F050E94BE
S11307800902DF91CF91089521C00E9420058A308B
S113079011F08D3079F4E091E704EE23B9F0F0E044
S11307A0E551FB4F10828BEE94E00E9425031092DA
S11307B0E7040CC09091E7049D3140F4E92FF0E088
S11307C0E551FB4F80839F5F9093E7040E941C05D3
S11307D08111DBCF08950E94F4000E9459000E9409
S11307E0110460E875E280E090E00E94E1047894EE
S11307F00E941E010E9409020E94C4038091E80421
S1130800811105C00E9400010E943501F5CF81309D
S113081019F40E940A01F0CF823071F70E9414018A
S1130820EBCF84B1826084B984B1846084B984B12B
S1130830886084B98AB188608AB910928000E1E83E
S1130840F0E0108283E190E0909389008093880027
S1130850808188608083808182608083EFE6F0E01D
S11308608081826080830895E82F843000F5643F9E
S113087081E0780710F464EF71E0653C89E0780763
S113088010F064EC79E09B01ADECBCEC0E944505F2
S1130890969587959695879596958795F894F0E023
S11308A0EE0FFF1FEC5FFE4F9183808378940895D1
S11308B0CF93C82F653B08F064EB262F30E0A0ED02
S11308C0B7E00E94450524EB30E040E050E00E9490
S11308D02305B9016C507E4F8C2F0E943404CF91B4
S11308E008951F920F920FB60F9211242F933F93E6
S11308F08F939F938091E9049091EA04892B61F48A
S113090085B1826085B985B1846085B985B1886017
S113091085B98BB188608BB92091040130910501B0
S11309208091E9049091EA042817390719F485B1F4
S11309308D7F85B920910601309107018091E904EA
S11309409091EA042817390719F485B18B7F85B98A
S113095020910801309109018091E9049091EA0401
S11309602817390719F485B1877F85B920910A01C1
S113097030910B018091E9049091EA04281739071A
S113098019F48BB1877F8BB98091E9049091EA04C3
S113099001969093EA048093E9048091E90490918C
S11309A0EA04803D974020F01092EA041092E90492
S11309B09F918F913F912F910F900FBE0F901F9099
S11309C01895DC01CB01880F991FAA1FBB1F880F44
S11309D0991FAA1FBB1F9C01AD01220F331F441F87
S11309E0551F220F331F441F551F60E074E284EF2C
S11309F090E00E942305215031093093C5002093D3
S1130A00C40088E18093C10086E08093C200089509
S1130A109091C00095FFFCCF8093C6000895CF93BA
S1130A20DF93EC0103C021960E940805888181119F
S1130A30FACFDF91CF9108958091C0008078089516
S1130A408091C6000895A1E21A2EAA1BBB1BFD01CA
S1130A500DC0AA1FBB1FEE1FFF1FA217B307E40799
S1130A60F50720F0A21BB30BE40BF50B661F771FF1
S1130A70881F991F1A9469F76095709580959095D1
S1130A809B01AC01BD01CF010895A29FB001B39FAA
S1130A90C001A39F700D811D1124911DB29F700D83
S1130AA0811D1124911D0895FC0188279927E8943C
S1130AB021912032E9F3293010F02E30C8F32B3283
S1130AC041F02D3239F4689404C00E947B05820FF2
S1130AD0911D219120532A30C0F31EF490958195E5
S1130AE09F4F0895FB01DC018D9101908019011045
S1130AF0D9F3990B08957AE0979F902D879F802DC5
S1130B00910D11240895AEE0B0E0E9E8F5E00C940D
S1130B10920B0D891E8986E08C831A8309838FEFDB
S1130B209FE79E838D83AE01475E5F4F6F89788D0B
S1130B30CE0101960E94BE05EF81F885E00FF11FFA
S1130B4010822E96E4E00C94AE0BAEE0B0E0EBEA3B
S1130B50F5E00C94940B85E08C838B899C899A83B3
S1130B608983AE01495E5F4F6D897E89CE0101960E
S1130B700E943B092E96E2E00C94B00BABE0B0E08F
S1130B80E4ECF5E00C94840B6C017B018A01FC011C
S1130B9017821682838181FFCCC1CE0101963C016C
S1130BA0F6019381F70193FD859193FF81917F0174
S1130BB0882309F4BAC1853239F493FD859193FFF2
S1130BC081917F01853229F4B60190E00E94B40A34
S1130BD0E7CF912C212C312CFFE1F315D8F08B3287
S1130BE079F038F4803279F08332A1F4232D206136
S1130BF01DC08D3261F0803369F4232D216016C04D
S1130C00832D8260382EE32DE4603E2E2AC0F32D1E
S1130C10F8601DC037FC2DC020ED280F2A3040F0AD
S1130C208E32B9F436FC81C1232D2064322E19C0D2
S1130C3036FE06C08AE0989E200D1124922E11C023
S1130C40EAE02E9E200D1124222EF32DF0623F2E79
S1130C5008C08C3621F4832D8068382E02C0883673
S1130C6041F4F70193FD859193FF81917F018111F7
S1130C70B3CF982F9F7D9554933028F40C5F1F4F6A
S1130C809FE399830DC0833631F0833771F0833548
S1130C9009F059C021C0F801808189830E5F1F4F7C
S1130CA088248394912C530113C02801F2E04F0E41
S1130CB0511CF801A080B18036FE03C0692D70E09C
S1130CC002C06FEF7FEFC5010E946B0A4C018201E5
S1130CD0F32DFF773F2E16C0280122E0420E511C4F
S1130CE0F801A080B18036FE03C0692D70E002C017
S1130CF06FEF7FEFC5010E94600A4C01F32DF0688D
S1130D003F2E820133FC1BC0822D90E08816990689
S1130D10B0F4B60180E290E00E94B40A2A94F4CFC1
S1130D20F50137FC859137FE81915F01B60190E0B2
S1130D300E94B40A21102A9421E0821A9108811495
S1130D40910471F7E8C0843611F0893641F5F80151
S1130D5037FE07C060817181828193810C5F1F4FD0
S1130D6008C060817181072E000C880B990B0E5FFF
S1130D701F4FF32DFF763F2E97FF09C09095809566
S1130D80709561957F4F8F4F9F4FF0683F2E2AE0FB
S1130D9030E0A3010E94090B882E861845C08537D0
S1130DA031F4232D2F7EB22E2AE030E025C0932D7E
S1130DB0997FB92E8F36C1F018F4883579F0B5C013
S1130DC0803719F0883721F0B0C0E92FE061BE2EDA
S1130DD0B4FE0DC0FB2DF460BF2E09C034FE0AC062
S1130DE0292F2660B22E06C028E030E005C020E19D
S1130DF030E002C020E132E0F801B7FE07C06081B4
S1130E007181828193810C5F1F4F06C06081718163
S1130E1080E090E00E5F1F4FA3010E94090B882E13
S1130E208618FB2DFF773F2E36FE0DC0232D2E7F17
S1130E30A22E891458F434FE0BC032FC09C0832D51
S1130E408E7EA82E05C0B82CA32C03C0B82C01C0DC
S1130E50B92CA4FE0FC0FE01E80DF11D8081803382
S1130E6021F49A2D997EA92E09C0A2FE06C0B3943E
S1130E70B39404C08A2D867809F0B394A3FC11C0FE
S1130E80A0FE06C0B21488F4280C922C9B180EC045
S1130E90B21460F4B60180E290E00E94B40AB39404
S1130EA0F7CFB21418F42B1802C0982C212CA4FEEE
S1130EB010C0B60180E390E00E94B40AA2FE17C0FD
S1130EC0A1FC03C088E790E002C088E590E0B60189
S1130ED00CC08A2D867859F0A1FE02C08BE201C0B5
S1130EE080E2A7FC8DE2B60190E00E94B40A891466
S1130EF038F4B60180E390E00E94B40A9A94F7CFE4
S1130F008A94F301E80DF11D8081B60190E00E94FE
S1130F10B40A8110F5CF222009F442CEB60180E252
S1130F2090E00E94B40A2A94F6CFF6018681978154
S1130F3002C08FEF9FEF2B96E2E10C94A00B20FDF3
S1130F4009C0FC0123FD05C022FF02C07383628334
S1130F5051834083089544FD17C046FD17C0AB017B
S1130F60BC01DA01FB01AA0FBB1FEE1FFF1F109487
S1130F70D1F74A0F5B1F6E1F7F1FCB01BA01660FAB
S1130F80771F881F991F09C033E001C034E0660F42
S1130F90771F881F991F3150D1F7620F711D811D72
S1130FA0911D08950F931F93CF93DF938C01C80174
S1130FB00E94760AEC0197FD08C00E944C0A892B16
S1130FC0B1F7B801CE010E94F00ACE01DF91CF91B2
S1130FD01F910F9108958F929F92AF92BF92EF92BB
S1130FE0FF920F931F93CF93DF938C01D62F7A0137
S1130FF0B22E0E94760A9C0133272B32310531F040
S11310002D32310561F48B2D8068B82ED15011F446
S113101080E068C0C8010E94760A97FDF9CFCB2D05
S1131020CD7F2B2D207309F58033F9F4AA24AA94DB
S1131030AD0E09F443C0C8010E94760A97FD3EC074
S11310409C012F7D33272835310549F4C264D250E1
S1131050A9F1C8010E94760A97FF07C02FC0B6FE07
S113106002C0C26001C0C261DA2D812C912C5401EE
S113107020ED280F283080F0C4FF04C0B8010E947E
S1131080F00A19C02A3040F0C6FFF8CF2F7D3FEE9A
S1131090320F363098F727504C2FC501B4010E9407
S11310A0AB074B015C01C260D15059F0C8010E94EA
S11310B0760A97FFDDCFC1FD04C0AACF812C912C05
S11310C05401C7FF08C0B094A09490948094811CEC
S11310D0911CA11CB11C2C2FB501A401C7010E94B5
S11310E09F0781E0DF91CF911F910F91FF90EF90C7
S11310F0BF90AF909F908F900895A0E2B0E0E3E896
S1131100F8E00C94870B5C01962E7A01F9018E01AC
S11311100F5F1F4F680180E2D8011D928A95E9F79D
S1131120D50113968C9080E090E0612C712C30E016
S113113061E070E083FC259183FE21918F01522EA2
S1131140211103C080E090E092C02E3511F4009785
S113115051F1432F50E0481759073CF42D3559F10C
S11311602D3219F4772009F103C0772009F46AC0FD
S1131170452D469546954695D601A40FB11D452D9E
S113118047708B0102C0000F111F4A95E2F7A801B6
S11311905C91452B4C93651459F0561410F45394F8
S11311A0E7CF5A94E5CF31E004C07724739401C0AB
S11311B0712C0196BFCF772019F08E8180628E83C7
S11311C0311103C08824839417C0F6019E012F5D5A
S11311D03F4F8081809581932E173F07D1F7F2CF3F
S11311E0E114F10429F0D7018C93F70131967F01C2
S11311F09A94812C9920F9F0C5010E94760A97FDF2
S113120018C0FC01FF2723E0F595E7952A95E1F73F
S1131210EC0DFD1D208130E0AC014770552702C064
S1131220359527954A95E2F720FDDACFB5010E945E
S1131230F00A811087CFE114F10411F0D7011C9258
S1131240C80115C0422F469546954695D601A40F70
S1131250B11D422F47708B0102C0000F111F4A9528
S1131260E2F7A8015C91452B4C93622EA2CFA09685
S1131270EFE00C94A30BA0E0B0E0E1E4F9E00C94FF
S1131280870B6C01EB015A01FC0117821682512C69
S1131290F601E380FE01E3FC8591E3FE8191182FC2
S11312A0EF01882309F4EEC090E00E944C0A892BD8
S11312B021F0C6010E94D207EBCF153241F4FE01A2
S11312C0E3FC1591E3FE1191EF01153281F4C6019F
S11312D00E94760A97FDD4C0412F50E09C01332729
S11312E024173507A9F2B6010E94F00ACBC01A32BE
S11312F039F4E3FC1591E3FE1191EF0101E001C023
S113130000E0F12C20ED210F2A3080F402606F2DD3
S113131070E080E090E040E20E94AB07F62EFE0110
S1131320E3FC1591E3FE1191EF01ECCF01FF03C043
S1131330F11003C0A7C0FF24FA94183619F01C3624
S113134051F010C0FE01E3FC1591E3FE1191EF0191
S1131350183641F408600460FE01E3FC1591E3FED5
S11313601191EF01112309F48DC0612F70E088E61B
S113137090E00E94550A892B09F484C000FD07C03F
S1131380F50180809180C50102965C0102C0812C28
S1131390912C1E3651F4F6014681578160E070E0CD
S11313A0202FC4010E949F0773CF1336A9F401FDB7
S11313B002C0FF24F394C6010E94760A97FD60C020
S11313C08114910429F0F4018083C40101964C0135
S11313D0FA94F110F0CF50C01B3559F49E01A401CA
S11313E06F2DC6010E947D08EC01892B09F044C0D1
S11313F03EC0C6010E94D20797FD42C01F3661F16C
S113140028F4143639F1193651F128C0133771F024
S1131410153701F123C08114910429F0F40160828D
S1131420C40101964C01FA94FF2071F0C6010E9498
S1131430760A3C0197FD08C00E944C0A892B59F397
S1131440B601C3010E94F00A81149104A9F0F401C9
S1131450108212C0006203C0006101C00064202F2A
S1131460A4016F2DC6010E94EB07811105C0F6018E
S11314708381807329F406C000FD0ACF539408CFFA
S1131480552019F0852D90E002C08FEF9FEFCDB766
S1131490DEB7EFE00C94A30B91110C94670B803230
S11314A019F089508550C8F70895FC010590061677
S11314B021F00020D9F7C00108953197CF01089594
S11314C0FC010590615070400110D8F7809590950B
S11314D08E0F9F1F0895FC01615070400190011010
S11314E0D8F7809590958E0F9F1F0895CF93DF9323
S11314F0EC012B8120FF33C026FF0AC02F7B2B83F6
S11315008E819F8101969F838E838A8190E029C07A
S113151022FF0FC0E881F9818081082E000C990B0D
S1131520009719F420622B831AC03196F983E8835B
S11315300EC0EA85FB85099597FF09C02B810196AA
S113154011F080E201C080E1822B8B8308C02E81E0
S11315503F812F5F3F4F3F832E83992702C08FEF38
S11315609FEFDF91CF9108950F931F93CF93DF9354
S1131570FB01238121FD03C08FEF9FEF2CC022FFCD
S113158016C046815781248135814217530744F49C
S1131590A081B1819D012F5F3F4F318320838C93C4
S11315A0268137812F5F3F4F3783268314C08B01F9
S11315B0EC01FB010084F185E02D0995892BE1F60E
S11315C0D80116968D919C911797019617969C9326
S11315D08E931697CE01DF91CF911F910F910895AD
S11315E0FB01238120FF12C026FD10C08F3F3FEF77
S11315F0930761F082832F7D2064238326813781C2
S11316002150310937832683992708958FEF9FEF5F
S11316100895FA01AA27283051F1203181F1E89484
S11316206F936E7F6E5F7F4F8F4F9F4FAF4FB1E0D1
S11316303ED0B4E03CD0670F781F891F9A1FA11DCC
S1131640680F791F8A1F911DA11D6A0F711D811DCD
S1131650911DA11D20D009F468943F912AE0269F92
S113166011243019305D3193DEF6CF010895462FF1
S11316704770405D4193B3E00FD0C9F7F6CF462FD2
S11316804F70405D4A3318F0495D31FD405241933B
S113169002D0A9F7EACFB4E0A695979587957795F8
S11316A06795BA95C9F700976105710508959B017F
S11316B0AC010A2E06945795479537952795BA9508
S11316C0C9F7620F731F841F951FA01D08959927E2
S11316D088270895F999FECF92BD81BDF89A99277C
S11316E080B50895262FF999FECF92BD81BDF89A51
S11316F0019700B4021639F01FBA20BD0FB6F89452
S1131700FA9AF99A0FBE08952F923F924F925F92E0
S11317106F927F928F929F92AF92BF92CF92DF92FD
S1131720EF92FF920F931F93CF93DF93CDB7DEB762
S1131730CA1BDB0B0FB6F894DEBF0FBECDBF0994F6
S11317402A88398848885F846E847D848C849B844D
S1131750AA84B984C884DF80EE80FD800C811B815B
S1131760AA81B981CE0FD11D0FB6F894DEBF0FBE8A
S10D1770CDBFED010895F894FFCFFA
S113177A5A5A5A5A96009600960096004D2C256499
S113178A2C25642C25642C256400536572766F20FD
S113179A61637475616C697A61646F3A2025642C9B
S11317AA25642C25642C25640D0A004572726F7217
S11317BA20666F726D61746F2E20557365204D2CEF
S11317CA73312C73322C73332C73340D0A000D0AC3
S11317DA3D3D3D2050524F594543544F20323A2003
S11317EA4741525241203420534552564F53203DCB
S11317FA3D3D0D0A0048203D204D6F646F206D6108
S113180A6E75616C20636F6E20706F74656E6369A8
S113181A6F6D6574726F730D0A0053203D2047750E
S113182A617264617220706F736963696F6E20619B
S113183A637475616C20656E20454550524F4D0D99
S113184A0A0045203D20456C6567697220706F73F4
S113185A6963696F6E20677561726461646120658A
S113186A6E20454550524F4D0D0A0055203D204DDE
S113187A6F646F2055415254202F2041646166726F
S113188A7569740D0A004D2C612C622C632C64203A
S113189A3D204D6F76657220736572766F7320648E
S11318AA657364652041646166727569740D0A0022
S11318BA43203D20426F7272617220706F736963B4
S11318CA696F6E6573206775617264616461730D13
S11318DA0A004D454E55203D204D6F737472617256
S11318EA206D656E750D0A00506F736963696F6EBA
S11318FA6573206775617264616461733A20256453
S113190A2F340D0A003D3D3D3D3D3D3D3D3D3D3DB0
S113191A3D3D3D3D3D3D3D3D3D3D3D3D3D3D3D3DE9
S113192A3D3D3D3D3D3D3D3D0D0A004D656D6F72AA
S113193A6961206C6C656E612E204D6178696D6FEA
S113194A203420706F736963696F6E65732E0D0A94
S113195A00506F736963696F6E202564206775612F
S113196A726461646120656E20454550524F4D0D85
S113197A0A004E6F2068617920706F736963696F1A
S113198A6E6573206775617264616461732E0D0AF2
S113199A00506F736963696F6E20696E76616C6952
S11319AA64612E2048617920256420706F7369630D
S11319BA696F6E6573206775617264616461732E01
S11319CA0D0A004D6F737472616E646F20706F73C9
S11319DA6963696F6E2025643A2025642C25642C7A
S11319EA25642C25640D0A0048004D6F646F206D30
S11319FA616E75616C20616374697661646F2E0D22
S1131A0A0A005300536F6C6F207365207075656408
S1131A1A65206775617264617220656E206D6F64FA
S1131A2A6F206D616E75616C2E0D0A0045004D6F55
S1131A3A646F20454550524F4D2061637469766145
S1131A4A646F2E0D0A00496E677265736520706FA4
S1131A5A736963696F6E2061206D6F73747261724A
S1131A6A3A20312C20322C2033206F20340D0A00E6
S1131A7A4D6F646F2055415254202F204164616692
S1131A8A7275697420616374697661646F2E0D0AD4
S1131A9A0053656C656363696F6E65206C617320BE
S1131AAA706F736963696F6E6573206465206C6F08
S1131ABA7320736572766F7320646573646520415D
S1131ACA646166727569742E0D0A00466F726D61DF
S1131ADA746F206D616E75616C3A204D2C612C62B5
S1131AEA2C632C640D0A00456A656D706C6F3A208C
S1131AFA4D2C39302C34352C3132302C33300D0AFC
S1131B0A005072696D65726F20616374697665202D
S1131B1A6D6F646F205541525420636F6E20552EA9
S1131B2A0D0A004300454550524F4D20626F7272B0
S1131B3A6164612E0D0A004D454E5500436F6D6177
S1131B4A6E646F206E6F207265636F6E6F63696473
S1091B5A6F2E0D0A0000CD
S9030000FC
