:100000000C9434000C9449000C9449000C94490061
:100010000C9449000C9449000C9449000C9449003C
:100020000C9449000C9449000C9449000C9449002C
:100030000C9449000C9449000C9449000C9449001C
:100040000C9449000C9449000C948C000C944900C9
:100050000C9449000C9449000C9449000C944900FC
:100060000C9449000C94490011241FBECFEFD8E036
:10007000DEBFCDBF11E0A0E0B1E0EEE8F1E002C0EC
:1000800005900D92A031B107D9F70E947A000C9427
:10009000C5000C9400008AB18E7F8AB98AB1826053
:1000A0008AB91092C00088E98093C10086E08093ED
:1000B000C20087E690E09093C5008093C400089545
:1000C0009091C00095FFFCCF8093C60008950F93D8
:1000D0001F93CF938C01C0E003C00E946000CF5FEC
:1000E000F801EC0FF11D80818111F7CFCF911F91A5
:1000F0000F910895F89484B1806284B98AB18062C6
:100100008AB985B18F7D85B90E944B0080E091E06E
:100110000E9467007894FFCF1F920F920FB60F9244
:1001200011242F933F934F935F936F937F938F93FC
:100130009F93AF93BF93CF93EF93FF93C091C6006C
:100140008C2F0E946000C13631F485B1806285B980
:100150008BB180628BB9C23631F485B18F7D85B9A0
:100160008BB18F7D8BB9FF91EF91CF91BF91AF9103
:100170009F918F917F916F915F914F913F912F91BF
:0E0180000F900FBE0F901F901895F894FFCFB0
:10018E00486F6C612073656363696F6E2031300058
:00000001FF
