:100000000C9434000C9449000C9449000C94490061
:100010000C9449000C9449000C9449000C9449003C
:100020000C9449000C9449000C9449000C9449002C
:100030000C9449000C9449000C9449000C9449001C
:100040000C9449000C9449000C9449000C9449000C
:100050000C9449000C9449000C9449000C944900FC
:100060000C9449000C94490011241FBECFEFD8E036
:10007000DEBFCDBF11E0A0E0B1E0E4EAF2E002C0F3
:1000800005900D92A63BB107D9F70E94F6000C949B
:1000900050010C9400001092C50087E68093C400C4
:1000A00088E18093C10086E08093C200089590911A
:1000B000C00095FFFCCF8093C60008958091C000DA
:1000C0008823E4F78091C60008950F931F93CF9380
:1000D000DF938C01C0E0D0E003C00E94570021965E
:1000E000F801EC0FFD1F80818111F7CFDF91CF91D7
:1000F0001F910F91089580E480937C0087E880939E
:100100007A000895ECE7F0E09081907F8F70892B62
:100110008083EAE7F0E080818064808380917A00C8
:1001200086FDFCCF809178009091790008950F931F
:100130001F93CF93DF9300D000D000D0CDB7DEB7B0
:10014000AC01892B99F580E30E94570044C09A01C5
:10015000ADECBCEC0E9441019695879596958795EC
:10016000969587959C01220F331F880F991F880F42
:10017000991F880F991F820F931F9A01281B390B13
:10018000C901E1E0F0E0EC0FFD1FE00FF11F805D21
:1001900080839A010E944101AC015695479556957E
:1001A0004795569547950F5F1F4F02C000E010E03E
:1001B0004115510561F6015011090BC0E1E0F0E075
:1001C000EC0FFD1FE00FF11F80810E9457000150CE
:1001D000110911239CF726960FB6F894DEBF0FBEC7
:1001E000CDBFDF91CF911F910F9108950E944B00D9
:1001F0000E947B008FEF84B980E091E00E9465004F
:1002000087E191E00E9465008FE291E00E94650025
:1002100081E491E00E9465000E945E00C82F0E9468
:10022000570084E191E00E946500C13381F486E0CB
:100230000E948200EC0189E591E00E946500CE01F8
:100240000E94970084E191E00E946500D5CFC233FF
:1002500099F483E791E00E9465000E945E00C82F38
:100260000E94570084E191E00E946500C5B989E8C9
:1002700091E00E946500C0CF82EA91E00E94650093
:10028000BBCFA29FB001B39FC001A39F700D811D82
:100290001124911DB29F700D811D1124911D08958F
:0402A000F894FFCF00
:1002A4000D0A2D2D2D2D2D2D204D454E55202D2D56
:1002B4002D2D2D2D0D0A00312E204C6565722050F8
:1002C4006F74656E63696F6D6574726F0D0A0032C9
:1002D4002E20456E766961722041534349490D0AC7
:1002E4000053656C656363696F6E6520756E61208C
:1002F4006F7063696F6E3A200056616C6F72206490
:10030400656C20706F74656E63696F6D6574726F70
:100314003A2000496E677265736520756E206361CB
:100324007261637465723A20004153434949206DF8
:100334006F73747261646F20656E204C4544730D55
:100344000A004F7063696F6E206E6F2076616C696E
:0603540064610D0A0000C7
:00000001FF
